{
  "contractName": "InfoContract",
  "abi": [
    {
      "constant": true,
      "inputs": [],
      "name": "name",
      "outputs": [
        {
          "name": "",
          "type": "string"
        }
      ],
      "payable": false,
      "stateMutability": "view",
      "type": "function"
    },
    {
      "constant": true,
      "inputs": [],
      "name": "age",
      "outputs": [
        {
          "name": "",
          "type": "uint256"
        }
      ],
      "payable": false,
      "stateMutability": "view",
      "type": "function"
    },
    {
      "inputs": [
        {
          "name": "_name",
          "type": "string"
        },
        {
          "name": "_age",
          "type": "uint256"
        }
      ],
      "payable": false,
      "stateMutability": "nonpayable",
      "type": "constructor"
    },
    {
      "anonymous": false,
      "inputs": [
        {
          "indexed": false,
          "name": "_sender",
          "type": "address"
        },
        {
          "indexed": false,
          "name": "_name",
          "type": "string"
        },
        {
          "indexed": true,
          "name": "_age",
          "type": "uint256"
        }
      ],
      "name": "SetInfo",
      "type": "event"
    },
    {
      "constant": false,
      "inputs": [
        {
          "name": "_name",
          "type": "string"
        },
        {
          "name": "_age",
          "type": "uint256"
        }
      ],
      "name": "setInfo",
      "outputs": [],
      "payable": false,
      "stateMutability": "nonpayable",
      "type": "function"
    },
    {
      "constant": true,
      "inputs": [],
      "name": "getInfo",
      "outputs": [
        {
          "name": "",
          "type": "string"
        },
        {
          "name": "",
          "type": "uint256"
        }
      ],
      "payable": false,
      "stateMutability": "view",
      "type": "function"
    }
  ],
  "bytecode": "0x608060405234801561001057600080fd5b5060405161065938038061065983398101806040528101908080518201929190602001805190602001909291905050508160009080519060200190610056929190610065565b5080600181905550505061010a565b828054600181600116156101000203166002900490600052602060002090601f016020900481019282601f106100a657805160ff19168380011785556100d4565b828001600101855582156100d4579182015b828111156100d35782518255916020019190600101906100b8565b5b5090506100e191906100e5565b5090565b61010791905b808211156101035760008160009055506001016100eb565b5090565b90565b610540806101196000396000f300608060405260043610610062576000357c0100000000000000000000000000000000000000000000000000000000900463ffffffff16806306fdde0314610067578063262a9dff146100f75780635a9b0b89146101225780638262963b146101b9575b600080fd5b34801561007357600080fd5b5061007c61022c565b6040518080602001828103825283818151815260200191508051906020019080838360005b838110156100bc5780820151818401526020810190506100a1565b50505050905090810190601f1680156100e95780820380516001836020036101000a031916815260200191505b509250505060405180910390f35b34801561010357600080fd5b5061010c6102ca565b6040518082815260200191505060405180910390f35b34801561012e57600080fd5b506101376102d0565b6040518080602001838152602001828103825284818151815260200191508051906020019080838360005b8381101561017d578082015181840152602081019050610162565b50505050905090810190601f1680156101aa5780820380516001836020036101000a031916815260200191505b50935050505060405180910390f35b3480156101c557600080fd5b5061022a600480360381019080803590602001908201803590602001908080601f01602080910402602001604051908101604052809392919081815260200183838082843782019150505050505091929192908035906020019092919050505061037c565b005b60008054600181600116156101000203166002900480601f0160208091040260200160405190810160405280929190818152602001828054600181600116156101000203166002900480156102c25780601f10610297576101008083540402835291602001916102c2565b820191906000526020600020905b8154815290600101906020018083116102a557829003601f168201915b505050505081565b60015481565b6060600080600154818054600181600116156101000203166002900480601f01602080910402602001604051908101604052809291908181526020018280546001816001161561010002031660029004801561036d5780601f106103425761010080835404028352916020019161036d565b820191906000526020600020905b81548152906001019060200180831161035057829003601f168201915b50505050509150915091509091565b816000908051906020019061039292919061046f565b5080600181905550807fd44c4855c903b05e597ffadfb0b678cf80a1a8b1ae919cb7ac1a12d935d7831a3384604051808373ffffffffffffffffffffffffffffffffffffffff1673ffffffffffffffffffffffffffffffffffffffff16815260200180602001828103825283818151815260200191508051906020019080838360005b83811015610430578082015181840152602081019050610415565b50505050905090810190601f16801561045d5780820380516001836020036101000a031916815260200191505b50935050505060405180910390a25050565b828054600181600116156101000203166002900490600052602060002090601f016020900481019282601f106104b057805160ff19168380011785556104de565b828001600101855582156104de579182015b828111156104dd5782518255916020019190600101906104c2565b5b5090506104eb91906104ef565b5090565b61051191905b8082111561050d5760008160009055506001016104f5565b5090565b905600a165627a7a72305820e0182aa2deae6e2b546dff878c70587e87a200dbbd1e8ae35b4507003fe452240029",
  "source": "pragma solidity ^0.4.24;\n\ncontract InfoContract {\n    string public name;\n    uint public age;\n\n    event SetInfo(address _sender, string _name, uint indexed _age);\n\n    constructor(string _name, uint _age) public {\n        name = _name;\n        age = _age;\n    }\n    \n    function setInfo(string _name, uint _age) public {\n        name = _name;\n        age = _age;\n        emit SetInfo(msg.sender, _name, _age);\n    }\n    \n    function getInfo() public view returns (string, uint) {\n        return (name, age);\n    }\n}",
  "sourcePath": "/Users/wxl/Workplace/TestWeb3.js/contracts/InfoContract.sol",
  "compiler": {
    "name": "solc",
    "version": "0.4.24+commit.e67f0147.Emscripten.clang"
  },
  "schemaVersion": "2.0.1",
  "updatedAt": "2018-12-20T16:39:05.409Z"
}